{
  "contractName": "admin",
  "abi": [
    {
      "constant": true,
      "inputs": [
        {
          "name": "",
          "type": "uint16"
        },
        {
          "name": "",
          "type": "uint256"
        }
      ],
      "name": "records",
      "outputs": [
        {
          "name": "work_id",
          "type": "uint8"
        },
        {
          "name": "date",
          "type": "uint8"
        },
        {
          "name": "count",
          "type": "uint8"
        },
        {
          "name": "add_time",
          "type": "uint8"
        }
      ],
      "payable": false,
      "stateMutability": "view",
      "type": "function"
    },
    {
      "constant": false,
      "inputs": [
        {
          "name": "workerId",
          "type": "uint16"
        },
        {
          "name": "work_id",
          "type": "uint8"
        },
        {
          "name": "date",
          "type": "uint8"
        },
        {
          "name": "count",
          "type": "uint8"
        },
        {
          "name": "add_time",
          "type": "uint8"
        }
      ],
      "name": "addRecord",
      "outputs": [],
      "payable": false,
      "stateMutability": "nonpayable",
      "type": "function"
    },
    {
      "constant": false,
      "inputs": [
        {
          "name": "workerId",
          "type": "uint16"
        }
      ],
      "name": "getRecords",
      "outputs": [
        {
          "name": "",
          "type": "uint256"
        }
      ],
      "payable": false,
      "stateMutability": "nonpayable",
      "type": "function"
    },
    {
      "constant": false,
      "inputs": [
        {
          "name": "workerId",
          "type": "uint16"
        }
      ],
      "name": "calHour",
      "outputs": [
        {
          "name": "",
          "type": "uint8"
        }
      ],
      "payable": false,
      "stateMutability": "nonpayable",
      "type": "function"
    }
  ],
  "bytecode": "0x608060405234801561001057600080fd5b506105dd806100206000396000f300608060405260043610610062576000357c0100000000000000000000000000000000000000000000000000000000900463ffffffff168063722de13b1461006757806392e3fe2f146100a7578063c64f634d146100d0578063f5ea7d521461010d575b600080fd5b34801561007357600080fd5b5061008e6004803603610089919081019061041b565b61014a565b60405161009e9493929190610522565b60405180910390f35b3480156100b357600080fd5b506100ce60048036036100c99190810190610457565b6101c6565b005b3480156100dc57600080fd5b506100f760048036036100f291908101906103f2565b6102cf565b6040516101049190610507565b60405180910390f35b34801561011957600080fd5b50610134600480360361012f91908101906103f2565b61035a565b60405161014191906104ec565b60405180910390f35b60006020528160005260406000208181548110151561016557fe5b90600052602060002001600091509150508060000160009054906101000a900460ff16908060000160019054906101000a900460ff16908060000160029054906101000a900460ff16908060000160039054906101000a900460ff16905084565b6101ce610381565b6080604051908101604052808660ff1681526020018560ff1681526020018460ff1681526020018360ff1681525090506000808761ffff1661ffff1681526020019081526020016000208190806001815401808255809150509060018203906000526020600020016000909192909190915060008201518160000160006101000a81548160ff021916908360ff16021790555060208201518160000160016101000a81548160ff021916908360ff16021790555060408201518160000160026101000a81548160ff021916908360ff16021790555060608201518160000160036101000a81548160ff021916908360ff160217905550505050505050505050565b60008060008090505b6000808561ffff1661ffff16815260200190815260200160002080549050811015610350576000808561ffff1661ffff1681526020019081526020016000208181548110151561032457fe5b9060005260206000200160000160029054906101000a900460ff168201915080806001019150506102d8565b8192505050919050565b60008060008361ffff1661ffff168152602001908152602001600020805490509050919050565b608060405190810160405280600060ff168152602001600060ff168152602001600060ff168152602001600060ff1681525090565b60006103c2823561057e565b905092915050565b60006103d6823561058c565b905092915050565b60006103ea8235610596565b905092915050565b60006020828403121561040457600080fd5b6000610412848285016103b6565b91505092915050565b6000806040838503121561042e57600080fd5b600061043c858286016103b6565b925050602061044d858286016103ca565b9150509250929050565b600080600080600060a0868803121561046f57600080fd5b600061047d888289016103b6565b955050602061048e888289016103de565b945050604061049f888289016103de565b93505060606104b0888289016103de565b92505060806104c1888289016103de565b9150509295509295909350565b6104d781610567565b82525050565b6104e681610571565b82525050565b600060208201905061050160008301846104ce565b92915050565b600060208201905061051c60008301846104dd565b92915050565b600060808201905061053760008301876104dd565b61054460208301866104dd565b61055160408301856104dd565b61055e60608301846104dd565b95945050505050565b6000819050919050565b600060ff82169050919050565b600061ffff82169050919050565b6000819050919050565b600060ff821690509190505600a265627a7a72305820629796274942ee3304c80a930179b35b45a8a6264aa674d4faa8a28f259704096c6578706572696d656e74616cf50037",
  "source": "pragma solidity ^0.4.16;\npragma experimental ABIEncoderV2;\ncontract admin{\n    struct Record{\n        uint8 work_id;       //work date\n        uint8 date;       //work date\n        uint8 count;       //work hour\n        uint8 add_time;     // the time add(linux timestamp)\n    }\n    \n    mapping (uint16 => Record[]) public records;\n    \n    function addRecord(uint16 workerId,uint8 work_id,uint8 date,uint8 count,uint8 add_time) public{\n        Record memory new_record = Record(work_id,date,count,add_time);\n        records[workerId].push(new_record);         //add a new record\n    }\n    \n    function getRecords(uint16 workerId) public returns (uint) {\n        return records[workerId].length;\n    }\n    \n    function calHour(uint16 workerId) public returns (uint8) {\n        uint8 num;\n        for(uint i = 0; i < records[workerId].length; i++) {\n            num  = num+records[workerId][i].count;\n        }\n        return num;\n    }\n}",
  "sourcePath": "/home/logic/桌面/project/contracts/admin.sol",
  "compiler": {
    "name": "solc",
    "version": "0.4.23+commit.124ca40d.Emscripten.clang"
  },
  "schemaVersion": "2.0.0",
  "updatedAt": "2018-05-12T11:36:18.743Z"
}