{
  "contractName": "admin",
  "abi": [
    {
      "constant": false,
      "inputs": [
        {
          "name": "workerId",
          "type": "uint16"
        },
        {
          "name": "date",
          "type": "uint256"
        },
        {
          "name": "count",
          "type": "uint8"
        },
        {
          "name": "add_time",
          "type": "uint256"
        }
      ],
      "name": "addRecord",
      "outputs": [],
      "payable": false,
      "stateMutability": "nonpayable",
      "type": "function"
    },
    {
      "constant": false,
      "inputs": [
        {
          "name": "workerId",
          "type": "uint16"
        }
      ],
      "name": "getRecords",
      "outputs": [
        {
          "name": "",
          "type": "uint256"
        }
      ],
      "payable": false,
      "stateMutability": "nonpayable",
      "type": "function"
    }
  ],
  "bytecode": "0x608060405234801561001057600080fd5b5061020e806100206000396000f30060806040526004361061004c576000357c0100000000000000000000000000000000000000000000000000000000900463ffffffff168063870f44da14610051578063f5ea7d52146100a3575b600080fd5b34801561005d57600080fd5b506100a1600480360381019080803561ffff16906020019092919080359060200190929190803560ff169060200190929190803590602001909291905050506100e8565b005b3480156100af57600080fd5b506100d2600480360381019080803561ffff169060200190929190505050610196565b6040518082815260200191505060405180910390f35b6100f06101bd565b6060604051908101604052808581526020018460ff1681526020018381525090506000808661ffff1661ffff16815260200190815260200160002081908060018154018082558091505090600182039060005260206000209060030201600090919290919091506000820151816000015560208201518160010160006101000a81548160ff021916908360ff160217905550604082015181600201555050505050505050565b60008060008361ffff1661ffff168152602001908152602001600020805490509050919050565b60606040519081016040528060008152602001600060ff1681526020016000815250905600a165627a7a7230582095ac21474d58c901aa1b6e676df01b193e918b9622941be2ba356c13070c272b0029",
  "source": "pragma solidity ^0.4.16;\n\ncontract admin{\n    struct Record{\n        uint date;       //work date\n        uint8 count;       //work hour\n        uint add_time;     // the time add(linux timestamp)\n    }\n    \n    mapping (uint16 => Record[]) private records;\n    \n    function addRecord(uint16 workerId,uint date,uint8 count,uint add_time) public{\n        Record memory new_record = Record(date,count,add_time);\n        records[workerId].push(new_record);         //add a new record\n    }\n    \n    function getRecords(uint16 workerId) public returns (uint) {\n        return records[workerId].length;         //add a new record\n    }\n}",
  "sourcePath": "/home/logic/桌面/project/contracts/admin.sol",
  "compiler": {
    "name": "solc",
    "version": "0.4.23+commit.124ca40d.Emscripten.clang"
  },
  "schemaVersion": "2.0.0",
  "updatedAt": "2018-04-27T07:59:49.811Z"
}