{
  "contractName": "admin",
  "abi": [
    {
      "constant": true,
      "inputs": [
        {
          "name": "",
          "type": "uint256"
        },
        {
          "name": "",
          "type": "uint256"
        },
        {
          "name": "",
          "type": "uint256"
        }
      ],
      "name": "records",
      "outputs": [
        {
          "name": "date",
          "type": "uint256"
        },
        {
          "name": "count",
          "type": "uint256"
        },
        {
          "name": "add_time",
          "type": "uint256"
        }
      ],
      "payable": false,
      "stateMutability": "view",
      "type": "function"
    },
    {
      "constant": true,
      "inputs": [
        {
          "name": "",
          "type": "uint256"
        },
        {
          "name": "",
          "type": "uint256"
        }
      ],
      "name": "works",
      "outputs": [
        {
          "name": "",
          "type": "uint256"
        }
      ],
      "payable": false,
      "stateMutability": "view",
      "type": "function"
    },
    {
      "constant": false,
      "inputs": [
        {
          "name": "name",
          "type": "bytes32"
        },
        {
          "name": "hash",
          "type": "bytes32"
        }
      ],
      "name": "addHash",
      "outputs": [],
      "payable": false,
      "stateMutability": "nonpayable",
      "type": "function"
    },
    {
      "constant": true,
      "inputs": [
        {
          "name": "name",
          "type": "bytes32"
        },
        {
          "name": "v_hash",
          "type": "bytes32"
        }
      ],
      "name": "vertifyHash",
      "outputs": [
        {
          "name": "",
          "type": "bool"
        }
      ],
      "payable": false,
      "stateMutability": "view",
      "type": "function"
    },
    {
      "constant": false,
      "inputs": [
        {
          "name": "workerId",
          "type": "uint256"
        },
        {
          "name": "workId",
          "type": "uint256"
        },
        {
          "name": "date",
          "type": "uint256"
        },
        {
          "name": "count",
          "type": "uint256"
        },
        {
          "name": "addTime",
          "type": "uint256"
        }
      ],
      "name": "addRecord",
      "outputs": [],
      "payable": false,
      "stateMutability": "nonpayable",
      "type": "function"
    },
    {
      "constant": true,
      "inputs": [
        {
          "name": "workerId",
          "type": "uint256"
        },
        {
          "name": "workId",
          "type": "uint256"
        }
      ],
      "name": "recordLength",
      "outputs": [
        {
          "name": "",
          "type": "uint256"
        }
      ],
      "payable": false,
      "stateMutability": "view",
      "type": "function"
    },
    {
      "constant": true,
      "inputs": [
        {
          "name": "workerId",
          "type": "uint256"
        },
        {
          "name": "workId",
          "type": "uint256"
        },
        {
          "name": "page",
          "type": "uint256"
        }
      ],
      "name": "getRecordsByWorkerIdAndWorkId",
      "outputs": [
        {
          "name": "res",
          "type": "string"
        },
        {
          "name": "finished",
          "type": "bool"
        }
      ],
      "payable": false,
      "stateMutability": "view",
      "type": "function"
    },
    {
      "constant": true,
      "inputs": [
        {
          "name": "workerId",
          "type": "uint256"
        }
      ],
      "name": "getWorkssByWorkerId",
      "outputs": [
        {
          "name": "res",
          "type": "string"
        }
      ],
      "payable": false,
      "stateMutability": "view",
      "type": "function"
    }
  ],
  "bytecode": "0x608060405234801561001057600080fd5b5061128e806100206000396000f30060806040526004361061008e576000357c0100000000000000000000000000000000000000000000000000000000900463ffffffff1680630bde462a1461009357806312366664146100d05780633af467df1461010f578063752821611461014c578063a61d9c0014610189578063ca1bd89e146101c7578063d745452e146101f0578063e042236b1461022d575b600080fd5b34801561009f57600080fd5b506100ba60048036036100b59190810190610f61565b610256565b6040516100c7919061111c565b60405180910390f35b3480156100dc57600080fd5b506100f760048036036100f29190810190611002565b61028b565b604051610106939291906111a4565b60405180910390f35b34801561011b57600080fd5b5061013660048036036101319190810190610fc6565b6102de565b6040516101439190611189565b60405180910390f35b34801561015857600080fd5b50610173600480360361016e9190810190610fc6565b610310565b6040516101809190611189565b60405180910390f35b34801561019557600080fd5b506101b060048036036101ab9190810190611002565b610340565b6040516101be929190611159565b60405180910390f35b3480156101d357600080fd5b506101ee60048036036101e99190810190610f61565b61050d565b005b3480156101fc57600080fd5b5061021760048036036102129190810190610f9d565b610535565b6040516102249190611137565b60405180910390f35b34801561023957600080fd5b50610254600480360361024f9190810190611051565b6105b0565b005b600080600260008560001916600019168152602001908152602001600020549050806000191683600019161491505092915050565b6001602052826000526040600020602052816000526040600020818154811015156102b257fe5b906000526020600020906003020160009250925050508060000154908060010154908060020154905083565b600060016000848152602001908152602001600020600083815260200190815260200160002080549050905092915050565b60006020528160005260406000208181548110151561032b57fe5b90600052602060002001600091509150505481565b60606000806000806000600a935083600188030292508383019150600160008a81526020019081526020016000206000898152602001908152602001600020805490508211156103b557600160008a815260200190815260200160002060008981526020019081526020016000208054905091505b83600160008b815260200190815260200160002060008a8152602001908152602001600020805490508115156103e757fe5b04871015156103f957600194506103fe565b600094505b8290505b81811015610501576104f486610459600160008d815260200190815260200160002060008c81526020019081526020016000208481548110151561044257fe5b906000526020600020906003020160000154610701565b6104a4600160008e815260200190815260200160002060008d81526020019081526020016000208581548110151561048d57fe5b906000526020600020906003020160010154610701565b6104ef600160008f815260200190815260200160002060008e8152602001908152602001600020868154811015156104d857fe5b906000526020600020906003020160020154610701565b610858565b9550806001019050610402565b50505050935093915050565b8060026000846000191660001916815260200190815260200160002081600019169055505050565b6060600080600091505b600080858152602001908152602001600020805490508210156105a9576000808581526020019081526020016000208281548110151561057b57fe5b9060005260206000200154905061059a8361059583610701565b610cde565b9250818060010192505061053f565b5050919050565b6105b8610f17565b600080606060405190810160405280878152602001868152602001858152509250600160008981526020019081526020016000206000888152602001908152602001600020839080600181540180825580915050906001820390600052602060002090600302016000909192909190915060008201518160000155602082015181600101556040820151816002015550505060009150600090505b600080898152602001908152602001600020805490508110156106b357866000808a81526020019081526020016000208281548110151561069057fe5b906000526020600020015414156106a657600191505b8080600101915050610653565b8115156106f7576000808981526020019081526020016000208790806001815401808255809150509060018203906000526020600020016000909192909190915055505b5050505050505050565b6060600080606060008086141561074f576040805190810160405280600181526020017f3000000000000000000000000000000000000000000000000000000000000000815250945061084f565b8593505b600084141515610779578280600101935050600a8481151561077157fe5b049350610753565b826040519080825280601f01601f1916602001820160405280156107ac5781602001602082028038833980820191505090505b5091506001830390505b60008614151561084b57600a868115156107cc57fe5b066030017f01000000000000000000000000000000000000000000000000000000000000000282828060019003935081518110151561080757fe5b9060200101907effffffffffffffffffffffffffffffffffffffffffffffffffffffffffffff1916908160001a905350600a8681151561084357fe5b0495506107b6565b8194505b50505050919050565b60608060608060608060606000808c97508b96508a955089945060038551875189518b51010101016040519080825280601f01601f1916602001820160405280156108b25781602001602082028038833980820191505090505b50935083925060009150600090505b87518110156109745787818151811015156108d857fe5b9060200101517f010000000000000000000000000000000000000000000000000000000000000090047f010000000000000000000000000000000000000000000000000000000000000002838380600101945081518110151561093757fe5b9060200101907effffffffffffffffffffffffffffffffffffffffffffffffffffffffffffff1916908160001a90535080806001019150506108c1565b7f3b0000000000000000000000000000000000000000000000000000000000000083838060010194508151811015156109a957fe5b9060200101907effffffffffffffffffffffffffffffffffffffffffffffffffffffffffffff1916908160001a905350600090505b8651811015610a915786818151811015156109f557fe5b9060200101517f010000000000000000000000000000000000000000000000000000000000000090047f0100000000000000000000000000000000000000000000000000000000000000028383806001019450815181101515610a5457fe5b9060200101907effffffffffffffffffffffffffffffffffffffffffffffffffffffffffffff1916908160001a90535080806001019150506109de565b7f2c000000000000000000000000000000000000000000000000000000000000008383806001019450815181101515610ac657fe5b9060200101907effffffffffffffffffffffffffffffffffffffffffffffffffffffffffffff1916908160001a905350600090505b8551811015610bae578581815181101515610b1257fe5b9060200101517f010000000000000000000000000000000000000000000000000000000000000090047f0100000000000000000000000000000000000000000000000000000000000000028383806001019450815181101515610b7157fe5b9060200101907effffffffffffffffffffffffffffffffffffffffffffffffffffffffffffff1916908160001a9053508080600101915050610afb565b7f2c000000000000000000000000000000000000000000000000000000000000008383806001019450815181101515610be357fe5b9060200101907effffffffffffffffffffffffffffffffffffffffffffffffffffffffffffff1916908160001a905350600090505b8451811015610ccb578481815181101515610c2f57fe5b9060200101517f010000000000000000000000000000000000000000000000000000000000000090047f0100000000000000000000000000000000000000000000000000000000000000028383806001019450815181101515610c8e57fe5b9060200101907effffffffffffffffffffffffffffffffffffffffffffffffffffffffffffff1916908160001a9053508080600101915050610c18565b8398505050505050505050949350505050565b606080606080606060008088955087945060018551875101016040519080825280601f01601f191660200182016040528015610d295781602001602082028038833980820191505090505b50935083925060009150600090505b8551811015610deb578581815181101515610d4f57fe5b9060200101517f010000000000000000000000000000000000000000000000000000000000000090047f0100000000000000000000000000000000000000000000000000000000000000028383806001019450815181101515610dae57fe5b9060200101907effffffffffffffffffffffffffffffffffffffffffffffffffffffffffffff1916908160001a9053508080600101915050610d38565b7f2c000000000000000000000000000000000000000000000000000000000000008383806001019450815181101515610e2057fe5b9060200101907effffffffffffffffffffffffffffffffffffffffffffffffffffffffffffff1916908160001a905350600090505b8451811015610f08578481815181101515610e6c57fe5b9060200101517f010000000000000000000000000000000000000000000000000000000000000090047f0100000000000000000000000000000000000000000000000000000000000000028383806001019450815181101515610ecb57fe5b9060200101907effffffffffffffffffffffffffffffffffffffffffffffffffffffffffffff1916908160001a9053508080600101915050610e55565b83965050505050505092915050565b6060604051908101604052806000815260200160008152602001600081525090565b6000610f4582356111fc565b905092915050565b6000610f598235611206565b905092915050565b60008060408385031215610f7457600080fd5b6000610f8285828601610f39565b9250506020610f9385828601610f39565b9150509250929050565b600060208284031215610faf57600080fd5b6000610fbd84828501610f4d565b91505092915050565b60008060408385031215610fd957600080fd5b6000610fe785828601610f4d565b9250506020610ff885828601610f4d565b9150509250929050565b60008060006060848603121561101757600080fd5b600061102586828701610f4d565b935050602061103686828701610f4d565b925050604061104786828701610f4d565b9150509250925092565b600080600080600060a0868803121561106957600080fd5b600061107788828901610f4d565b955050602061108888828901610f4d565b945050604061109988828901610f4d565b93505060606110aa88828901610f4d565b92505060806110bb88828901610f4d565b9150509295509295909350565b6110d1816111e6565b82525050565b60006110e2826111db565b8084526110f6816020860160208601611210565b6110ff81611243565b602085010191505092915050565b611116816111f2565b82525050565b600060208201905061113160008301846110c8565b92915050565b6000602082019050818103600083015261115181846110d7565b905092915050565b6000604082019050818103600083015261117381856110d7565b905061118260208301846110c8565b9392505050565b600060208201905061119e600083018461110d565b92915050565b60006060820190506111b9600083018661110d565b6111c6602083018561110d565b6111d3604083018461110d565b949350505050565b600081519050919050565b60008115159050919050565b6000819050919050565b6000819050919050565b6000819050919050565b60005b8381101561122e578082015181840152602081019050611213565b8381111561123d576000848401525b50505050565b6000601f19601f83011690509190505600a265627a7a72305820b4744eb154d43cf85ef5a19c60d677e0321b1a443729d289bdcc81e3359f03626c6578706572696d656e74616cf50037",
  "source": "pragma solidity ^0.4.16;\npragma experimental ABIEncoderV2;\ncontract admin{\n    struct Record{\n        uint date;\n        uint count;\n        uint add_time;\n    }\n    \n    mapping (uint =>  uint[])  public works;\n    mapping (uint =>  mapping (uint => Record[]))  public records;\n    \n    mapping (bytes32 => bytes32) file_hash;\n    \n    function addHash(bytes32 name, bytes32 hash) public{\n        file_hash[name] = hash;\n    }\n    \n    function vertifyHash(bytes32 name, bytes32 v_hash) constant public returns (bool){\n        bytes32 r_hash = file_hash[name];\n        return v_hash == r_hash;\n    }\n    \n    \n    function addRecord(uint workerId,uint workId,uint date,uint count,uint addTime) public{\n        Record memory new_record = Record(date,count,addTime);\n        records[workerId][workId].push(new_record);\n        bool exist = false;\n        for(uint i = 0; i < works[workerId].length; i++)\n        {\n            if(works[workerId][i] == workId)\n                exist = true;\n        }\n        if(!exist)\n            works[workerId].push(workId);\n    }\n    \n    function recordLength(uint workerId,uint workId) constant public returns (uint) {\n        return records[workerId][workId].length;\n    }\n    \n    function getRecordsByWorkerIdAndWorkId(uint workerId,uint workId,uint page) constant public returns (string res,bool finished) {\n        uint per_page = 10;\n        uint start = (page-1)*per_page;\n        uint end = start + per_page;\n        if(end > records[workerId][workId].length)\n            end = records[workerId][workId].length;\n        if(page >= records[workerId][workId].length/per_page)\n            finished = true;\n        else\n            finished = false;\n     \n        for (uint i = start; i < end; ++i) {\n            res = strConcat(res,uint2str(records[workerId][workId][i].date),uint2str(records[workerId][workId][i].count),uint2str(records[workerId][workId][i].add_time));\n        }\n    }\n    \n    function getWorkssByWorkerId(uint workerId) constant public returns(string res){\n        for(uint i = 0; i < works[workerId].length; i++)\n        {\n            uint workId = works[workerId][i];\n            res = strConcat2(res,uint2str(workId));\n        }\n    }\n    \n    function strConcat2(string _a, string _b) pure internal returns (string){\n        bytes memory _ba = bytes(_a);\n        bytes memory _bb = bytes(_b);\n        string memory ret = new string(_ba.length + _bb.length + 1);\n        bytes memory bret = bytes(ret);\n        uint k = 0;\n        for (uint i = 0; i < _ba.length; i++)bret[k++] = _ba[i];\n        bret[k++] = \",\";\n        for (i = 0; i < _bb.length; i++) bret[k++] = _bb[i];\n\n        return string(ret);\n    }\n    \n    \n    function strConcat(string _a, string _b,string _c,string _d) pure internal returns (string){\n        bytes memory _ba = bytes(_a);\n        bytes memory _bb = bytes(_b);\n        bytes memory _bc = bytes(_c);\n        bytes memory _bd = bytes(_d);\n        string memory ret = new string(_ba.length + _bb.length + _bc.length + _bd.length+3);\n        bytes memory bret = bytes(ret);\n        uint k = 0;\n        for (uint i = 0; i < _ba.length; i++)bret[k++] = _ba[i];\n        bret[k++] = \";\";\n        for (i = 0; i < _bb.length; i++) bret[k++] = _bb[i];\n        bret[k++] = \",\";\n\n        for (i = 0; i < _bc.length; i++) bret[k++] = _bc[i];\n                bret[k++] = \",\";\n\n        for (i = 0; i < _bd.length; i++) bret[k++] = _bd[i];\n        return string(ret);\n   }  \n   \n    function uint2str(uint i) pure internal returns (string){\n        if (i == 0) return \"0\";\n        uint j = i;\n        uint length;\n        while (j != 0){\n            length++;\n            j /= 10;\n        }\n        bytes memory bstr = new bytes(length);\n        uint k = length - 1;\n        while (i != 0){\n            bstr[k--] = byte(48 + i % 10);\n            i /= 10;\n        }\n        return string(bstr);\n    }\n}",
  "sourcePath": "/home/scy/project/work-record-contract/contracts/admin.sol",
  "compiler": {
    "name": "solc",
    "version": "0.4.24+commit.e67f0147.Emscripten.clang"
  },
  "schemaVersion": "2.0.1",
  "updatedAt": "2018-11-02T12:09:01.396Z"
}