{
  "contractName": "admin",
  "abi": [
    {
      "constant": true,
      "inputs": [
        {
          "name": "",
          "type": "uint256"
        },
        {
          "name": "",
          "type": "uint256"
        },
        {
          "name": "",
          "type": "uint256"
        }
      ],
      "name": "records",
      "outputs": [
        {
          "name": "date",
          "type": "uint256"
        },
        {
          "name": "count",
          "type": "uint256"
        },
        {
          "name": "add_time",
          "type": "uint256"
        }
      ],
      "payable": false,
      "stateMutability": "view",
      "type": "function"
    },
    {
      "constant": true,
      "inputs": [
        {
          "name": "",
          "type": "uint256"
        },
        {
          "name": "",
          "type": "uint256"
        }
      ],
      "name": "works",
      "outputs": [
        {
          "name": "",
          "type": "uint256"
        }
      ],
      "payable": false,
      "stateMutability": "view",
      "type": "function"
    },
    {
      "constant": false,
      "inputs": [
        {
          "name": "workerId",
          "type": "uint256"
        },
        {
          "name": "workId",
          "type": "uint256"
        },
        {
          "name": "date",
          "type": "uint256"
        },
        {
          "name": "count",
          "type": "uint256"
        },
        {
          "name": "addTime",
          "type": "uint256"
        }
      ],
      "name": "addRecord",
      "outputs": [],
      "payable": false,
      "stateMutability": "nonpayable",
      "type": "function"
    },
    {
      "constant": true,
      "inputs": [
        {
          "name": "workerId",
          "type": "uint256"
        },
        {
          "name": "workId",
          "type": "uint256"
        }
      ],
      "name": "recordLength",
      "outputs": [
        {
          "name": "",
          "type": "uint256"
        }
      ],
      "payable": false,
      "stateMutability": "view",
      "type": "function"
    },
    {
      "constant": true,
      "inputs": [
        {
          "name": "workerId",
          "type": "uint256"
        },
        {
          "name": "workId",
          "type": "uint256"
        },
        {
          "name": "page",
          "type": "uint256"
        }
      ],
      "name": "getRecordsByWorkerIdAndWorkId",
      "outputs": [
        {
          "name": "res",
          "type": "string"
        },
        {
          "name": "finished",
          "type": "bool"
        }
      ],
      "payable": false,
      "stateMutability": "view",
      "type": "function"
    },
    {
      "constant": true,
      "inputs": [
        {
          "name": "workerId",
          "type": "uint256"
        }
      ],
      "name": "getRecordsByWorkerId",
      "outputs": [
        {
          "name": "length",
          "type": "uint256"
        }
      ],
      "payable": false,
      "stateMutability": "view",
      "type": "function"
    }
  ],
  "bytecode": "0x608060405234801561001057600080fd5b50610efc806100206000396000f300608060405260043610610078576000357c0100000000000000000000000000000000000000000000000000000000900463ffffffff168063123666641461007d57806316a56c4b146100bc5780633af467df146100f95780637528216114610136578063a61d9c0014610173578063e042236b146101b1575b600080fd5b34801561008957600080fd5b506100a4600480360361009f9190810190610cb7565b6101da565b6040516100b393929190610e1c565b60405180910390f35b3480156100c857600080fd5b506100e360048036036100de9190810190610c52565b61022d565b6040516100f09190610e01565b60405180910390f35b34801561010557600080fd5b50610120600480360361011b9190810190610c7b565b6102bf565b60405161012d9190610e01565b60405180910390f35b34801561014257600080fd5b5061015d60048036036101589190810190610c7b565b6102f1565b60405161016a9190610e01565b60405180910390f35b34801561017f57600080fd5b5061019a60048036036101959190810190610cb7565b610321565b6040516101a8929190610dd1565b60405180910390f35b3480156101bd57600080fd5b506101d860048036036101d39190810190610d06565b6104ee565b005b60016020528260005260406000206020528160005260406000208181548110151561020157fe5b906000526020600020906003020160009250925050508060000154908060010154908060020154905083565b60008060008091505b600080858152602001908152602001600020805490508210156102b8576000808581526020019081526020016000208281548110151561027257fe5b9060005260206000200154905060016000858152602001908152602001600020600082815260200190815260200160002080549050830192508180600101925050610236565b5050919050565b600060016000848152602001908152602001600020600083815260200190815260200160002080549050905092915050565b60006020528160005260406000208181548110151561030c57fe5b90600052602060002001600091509150505481565b60606000806000806000600a935083600188030292508383019150600160008a815260200190815260200160002060008981526020019081526020016000208054905082111561039657600160008a815260200190815260200160002060008981526020019081526020016000208054905091505b83600160008b815260200190815260200160002060008a8152602001908152602001600020805490508115156103c857fe5b04871015156103da57600194506103df565b600094505b8290505b818110156104e2576104d58661043a600160008d815260200190815260200160002060008c81526020019081526020016000208481548110151561042357fe5b90600052602060002090600302016000015461063f565b610485600160008e815260200190815260200160002060008d81526020019081526020016000208581548110151561046e57fe5b90600052602060002090600302016001015461063f565b6104d0600160008f815260200190815260200160002060008e8152602001908152602001600020868154811015156104b957fe5b90600052602060002090600302016002015461063f565b610796565b95508060010190506103e3565b50505050935093915050565b6104f6610c1c565b600080606060405190810160405280878152602001868152602001858152509250600160008981526020019081526020016000206000888152602001908152602001600020839080600181540180825580915050906001820390600052602060002090600302016000909192909190915060008201518160000155602082015181600101556040820151816002015550505060009150600090505b600080898152602001908152602001600020805490508110156105f157866000808a8152602001908152602001600020828154811015156105ce57fe5b906000526020600020015414156105e457600191505b8080600101915050610591565b811515610635576000808981526020019081526020016000208790806001815401808255809150509060018203906000526020600020016000909192909190915055505b5050505050505050565b6060600080606060008086141561068d576040805190810160405280600181526020017f3000000000000000000000000000000000000000000000000000000000000000815250945061078d565b8593505b6000841415156106b7578280600101935050600a848115156106af57fe5b049350610691565b826040519080825280601f01601f1916602001820160405280156106ea5781602001602082028038833980820191505090505b5091506001830390505b60008614151561078957600a8681151561070a57fe5b066030017f01000000000000000000000000000000000000000000000000000000000000000282828060019003935081518110151561074557fe5b9060200101907effffffffffffffffffffffffffffffffffffffffffffffffffffffffffffff1916908160001a905350600a8681151561078157fe5b0495506106f4565b8194505b50505050919050565b60608060608060608060606000808c97508b96508a955089945060038551875189518b51010101016040519080825280601f01601f1916602001820160405280156107f05781602001602082028038833980820191505090505b50935083925060009150600090505b87518110156108b257878181518110151561081657fe5b9060200101517f010000000000000000000000000000000000000000000000000000000000000090047f010000000000000000000000000000000000000000000000000000000000000002838380600101945081518110151561087557fe5b9060200101907effffffffffffffffffffffffffffffffffffffffffffffffffffffffffffff1916908160001a90535080806001019150506107ff565b7f3b0000000000000000000000000000000000000000000000000000000000000083838060010194508151811015156108e757fe5b9060200101907effffffffffffffffffffffffffffffffffffffffffffffffffffffffffffff1916908160001a905350600090505b86518110156109cf57868181518110151561093357fe5b9060200101517f010000000000000000000000000000000000000000000000000000000000000090047f010000000000000000000000000000000000000000000000000000000000000002838380600101945081518110151561099257fe5b9060200101907effffffffffffffffffffffffffffffffffffffffffffffffffffffffffffff1916908160001a905350808060010191505061091c565b7f2c000000000000000000000000000000000000000000000000000000000000008383806001019450815181101515610a0457fe5b9060200101907effffffffffffffffffffffffffffffffffffffffffffffffffffffffffffff1916908160001a905350600090505b8551811015610aec578581815181101515610a5057fe5b9060200101517f010000000000000000000000000000000000000000000000000000000000000090047f0100000000000000000000000000000000000000000000000000000000000000028383806001019450815181101515610aaf57fe5b9060200101907effffffffffffffffffffffffffffffffffffffffffffffffffffffffffffff1916908160001a9053508080600101915050610a39565b7f2c000000000000000000000000000000000000000000000000000000000000008383806001019450815181101515610b2157fe5b9060200101907effffffffffffffffffffffffffffffffffffffffffffffffffffffffffffff1916908160001a905350600090505b8451811015610c09578481815181101515610b6d57fe5b9060200101517f010000000000000000000000000000000000000000000000000000000000000090047f0100000000000000000000000000000000000000000000000000000000000000028383806001019450815181101515610bcc57fe5b9060200101907effffffffffffffffffffffffffffffffffffffffffffffffffffffffffffff1916908160001a9053508080600101915050610b56565b8398505050505050505050949350505050565b6060604051908101604052806000815260200160008152602001600081525090565b6000610c4a8235610e74565b905092915050565b600060208284031215610c6457600080fd5b6000610c7284828501610c3e565b91505092915050565b60008060408385031215610c8e57600080fd5b6000610c9c85828601610c3e565b9250506020610cad85828601610c3e565b9150509250929050565b600080600060608486031215610ccc57600080fd5b6000610cda86828701610c3e565b9350506020610ceb86828701610c3e565b9250506040610cfc86828701610c3e565b9150509250925092565b600080600080600060a08688031215610d1e57600080fd5b6000610d2c88828901610c3e565b9550506020610d3d88828901610c3e565b9450506040610d4e88828901610c3e565b9350506060610d5f88828901610c3e565b9250506080610d7088828901610c3e565b9150509295509295909350565b610d8681610e5e565b82525050565b6000610d9782610e53565b808452610dab816020860160208601610e7e565b610db481610eb1565b602085010191505092915050565b610dcb81610e6a565b82525050565b60006040820190508181036000830152610deb8185610d8c565b9050610dfa6020830184610d7d565b9392505050565b6000602082019050610e166000830184610dc2565b92915050565b6000606082019050610e316000830186610dc2565b610e3e6020830185610dc2565b610e4b6040830184610dc2565b949350505050565b600081519050919050565b60008115159050919050565b6000819050919050565b6000819050919050565b60005b83811015610e9c578082015181840152602081019050610e81565b83811115610eab576000848401525b50505050565b6000601f19601f83011690509190505600a265627a7a72305820172b7fd279b30b3fad1492c564d424edfa82ce4488190a90e1882f69b79d9a366c6578706572696d656e74616cf50037",
  "source": "pragma solidity ^0.4.16;\npragma experimental ABIEncoderV2;\ncontract admin{\n    struct Record{\n        uint date;\n        uint count;\n        uint add_time;\n    }\n    \n    mapping (uint =>  uint[])  public works;\n    mapping (uint =>  mapping (uint => Record[]))  public records;\n    \n    function addRecord(uint workerId,uint workId,uint date,uint count,uint addTime) public{\n        Record memory new_record = Record(date,count,addTime);\n        records[workerId][workId].push(new_record);\n        bool exist = false;\n        for(uint i = 0; i < works[workerId].length; i++)\n        {\n            if(works[workerId][i] == workId)\n                exist = true;\n        }\n        if(!exist)\n            works[workerId].push(workId);\n    }\n    \n    function recordLength(uint workerId,uint workId) constant public returns (uint) {\n        return records[workerId][workId].length;\n    }\n    \n    function getRecordsByWorkerIdAndWorkId(uint workerId,uint workId,uint page) constant public returns (string res,bool finished) {\n        uint per_page = 10;\n        uint start = (page-1)*per_page;\n        uint end = start + per_page;\n        if(end > records[workerId][workId].length)\n            end = records[workerId][workId].length;\n        if(page >= records[workerId][workId].length/per_page)\n            finished = true;\n        else\n            finished = false;\n     \n        for (uint i = start; i < end; ++i) {\n            res = strConcat(res,uint2str(records[workerId][workId][i].date),uint2str(records[workerId][workId][i].count),uint2str(records[workerId][workId][i].add_time));\n        }\n    }\n    \n    function getRecordsByWorkerId(uint workerId) constant public returns(uint length){\n        for(uint i = 0; i < works[workerId].length; i++)\n        {\n            uint workId = works[workerId][i];\n            length += records[workerId][workId].length;\n        }\n    }\n    \n    function strConcat(string _a, string _b,string _c,string _d) pure internal returns (string){\n        bytes memory _ba = bytes(_a);\n        bytes memory _bb = bytes(_b);\n        bytes memory _bc = bytes(_c);\n        bytes memory _bd = bytes(_d);\n        string memory ret = new string(_ba.length + _bb.length + _bc.length + _bd.length+3);\n        bytes memory bret = bytes(ret);\n        uint k = 0;\n        for (uint i = 0; i < _ba.length; i++)bret[k++] = _ba[i];\n        bret[k++] = \";\";\n        for (i = 0; i < _bb.length; i++) bret[k++] = _bb[i];\n        bret[k++] = \",\";\n\n        for (i = 0; i < _bc.length; i++) bret[k++] = _bc[i];\n                bret[k++] = \",\";\n\n        for (i = 0; i < _bd.length; i++) bret[k++] = _bd[i];\n        return string(ret);\n   }  \n   \n    function uint2str(uint i) pure internal returns (string){\n        if (i == 0) return \"0\";\n        uint j = i;\n        uint length;\n        while (j != 0){\n            length++;\n            j /= 10;\n        }\n        bytes memory bstr = new bytes(length);\n        uint k = length - 1;\n        while (i != 0){\n            bstr[k--] = byte(48 + i % 10);\n            i /= 10;\n        }\n        return string(bstr);\n    }\n}",
  "sourcePath": "/home/logic/桌面/project/contracts/admin.sol",
  "compiler": {
    "name": "solc",
    "version": "0.4.23+commit.124ca40d.Emscripten.clang"
  },
  "schemaVersion": "2.0.0",
  "updatedAt": "2018-05-23T10:03:51.920Z"
}