{
  "contractName": "admin",
  "abi": [
    {
      "constant": true,
      "inputs": [
        {
          "name": "",
          "type": "uint16"
        },
        {
          "name": "",
          "type": "uint256"
        }
      ],
      "name": "records",
      "outputs": [
        {
          "name": "date",
          "type": "uint8"
        },
        {
          "name": "count",
          "type": "uint8"
        },
        {
          "name": "add_time",
          "type": "uint8"
        }
      ],
      "payable": false,
      "stateMutability": "view",
      "type": "function"
    },
    {
      "constant": false,
      "inputs": [
        {
          "name": "workerId",
          "type": "uint16"
        },
        {
          "name": "date",
          "type": "uint8"
        },
        {
          "name": "count",
          "type": "uint8"
        },
        {
          "name": "add_time",
          "type": "uint8"
        }
      ],
      "name": "addRecord",
      "outputs": [],
      "payable": false,
      "stateMutability": "nonpayable",
      "type": "function"
    },
    {
      "constant": false,
      "inputs": [
        {
          "name": "workerId",
          "type": "uint16"
        }
      ],
      "name": "getRecords",
      "outputs": [
        {
          "name": "",
          "type": "uint256"
        }
      ],
      "payable": false,
      "stateMutability": "nonpayable",
      "type": "function"
    },
    {
      "constant": false,
      "inputs": [
        {
          "name": "workerId",
          "type": "uint16"
        }
      ],
      "name": "calHour",
      "outputs": [
        {
          "name": "",
          "type": "uint8"
        }
      ],
      "payable": false,
      "stateMutability": "nonpayable",
      "type": "function"
    }
  ],
  "bytecode": "0x608060405234801561001057600080fd5b50610572806100206000396000f300608060405260043610610062576000357c0100000000000000000000000000000000000000000000000000000000900463ffffffff168063722de13b14610067578063c1168ab6146100a6578063c64f634d146100cf578063f5ea7d521461010c575b600080fd5b34801561007357600080fd5b5061008e600480360361008991908101906103d2565b610149565b60405161009d939291906104c5565b60405180910390f35b3480156100b257600080fd5b506100cd60048036036100c8919081019061040e565b6101b2565b005b3480156100db57600080fd5b506100f660048036036100f191908101906103a9565b610290565b60405161010391906104aa565b60405180910390f35b34801561011857600080fd5b50610133600480360361012e91908101906103a9565b61031b565b604051610140919061048f565b60405180910390f35b60006020528160005260406000208181548110151561016457fe5b90600052602060002001600091509150508060000160009054906101000a900460ff16908060000160019054906101000a900460ff16908060000160029054906101000a900460ff16905083565b6101ba610342565b6060604051908101604052808560ff1681526020018460ff1681526020018360ff1681525090506000808661ffff1661ffff1681526020019081526020016000208190806001815401808255809150509060018203906000526020600020016000909192909190915060008201518160000160006101000a81548160ff021916908360ff16021790555060208201518160000160016101000a81548160ff021916908360ff16021790555060408201518160000160026101000a81548160ff021916908360ff1602179055505050505050505050565b60008060008090505b6000808561ffff1661ffff16815260200190815260200160002080549050811015610311576000808561ffff1661ffff168152602001908152602001600020818154811015156102e557fe5b9060005260206000200160000160019054906101000a900460ff16820191508080600101915050610299565b8192505050919050565b60008060008361ffff1661ffff168152602001908152602001600020805490509050919050565b606060405190810160405280600060ff168152602001600060ff168152602001600060ff1681525090565b60006103798235610513565b905092915050565b600061038d8235610521565b905092915050565b60006103a1823561052b565b905092915050565b6000602082840312156103bb57600080fd5b60006103c98482850161036d565b91505092915050565b600080604083850312156103e557600080fd5b60006103f38582860161036d565b925050602061040485828601610381565b9150509250929050565b6000806000806080858703121561042457600080fd5b60006104328782880161036d565b945050602061044387828801610395565b935050604061045487828801610395565b925050606061046587828801610395565b91505092959194509250565b61047a816104fc565b82525050565b61048981610506565b82525050565b60006020820190506104a46000830184610471565b92915050565b60006020820190506104bf6000830184610480565b92915050565b60006060820190506104da6000830186610480565b6104e76020830185610480565b6104f46040830184610480565b949350505050565b6000819050919050565b600060ff82169050919050565b600061ffff82169050919050565b6000819050919050565b600060ff821690509190505600a265627a7a7230582031bc74eca2f2701dc79cedbe51067c16b9aae5bfac6857f3afcab26a232ffee46c6578706572696d656e74616cf50037",
  "source": "pragma solidity ^0.4.16;\npragma experimental ABIEncoderV2;\ncontract admin{\n    struct Record{\n        uint8 date;       //work date\n        uint8 count;       //work hour\n        uint8 add_time;     // the time add(linux timestamp)\n    }\n    \n    mapping (uint16 => Record[]) public records;\n    \n    function addRecord(uint16 workerId,uint8 date,uint8 count,uint8 add_time) public{\n        Record memory new_record = Record(date,count,add_time);\n        records[workerId].push(new_record);         //add a new record\n    }\n    \n    function getRecords(uint16 workerId) public returns (uint) {\n        return records[workerId].length;\n    }\n    \n    function calHour(uint16 workerId) public returns (uint8) {\n        uint8 num;\n        for(uint i = 0; i < records[workerId].length; i++) {\n            num  = num+records[workerId][i].count;\n        }\n        return num;\n    }\n}",
  "sourcePath": "/home/logic/桌面/project/contracts/admin.sol",
  "compiler": {
    "name": "solc",
    "version": "0.4.23+commit.124ca40d.Emscripten.clang"
  },
  "schemaVersion": "2.0.0",
  "updatedAt": "2018-04-27T15:15:30.174Z"
}